{
  "_format": "hh-sol-artifact-1",
  "contractName": "ReviewStorage",
  "sourceName": "contracts/ReviewStorage.sol",
  "abi": [
    {
      "inputs": [],
      "stateMutability": "nonpayable",
      "type": "constructor"
    },
    {
      "inputs": [
        {
          "internalType": "address",
          "name": "owner",
          "type": "address"
        }
      ],
      "name": "OwnableInvalidOwner",
      "type": "error"
    },
    {
      "inputs": [
        {
          "internalType": "address",
          "name": "account",
          "type": "address"
        }
      ],
      "name": "OwnableUnauthorizedAccount",
      "type": "error"
    },
    {
      "anonymous": false,
      "inputs": [
        {
          "indexed": true,
          "internalType": "address",
          "name": "previousOwner",
          "type": "address"
        },
        {
          "indexed": true,
          "internalType": "address",
          "name": "newOwner",
          "type": "address"
        }
      ],
      "name": "OwnershipTransferred",
      "type": "event"
    },
    {
      "anonymous": false,
      "inputs": [
        {
          "indexed": true,
          "internalType": "uint256",
          "name": "reviewId",
          "type": "uint256"
        },
        {
          "indexed": true,
          "internalType": "bytes32",
          "name": "productId",
          "type": "bytes32"
        },
        {
          "indexed": true,
          "internalType": "address",
          "name": "reviewer",
          "type": "address"
        },
        {
          "indexed": false,
          "internalType": "uint8",
          "name": "rating",
          "type": "uint8"
        },
        {
          "indexed": false,
          "internalType": "string",
          "name": "serviceName",
          "type": "string"
        }
      ],
      "name": "ReviewAdded",
      "type": "event"
    },
    {
      "anonymous": false,
      "inputs": [
        {
          "indexed": true,
          "internalType": "uint256",
          "name": "reviewId",
          "type": "uint256"
        }
      ],
      "name": "ReviewDeleted",
      "type": "event"
    },
    {
      "anonymous": false,
      "inputs": [
        {
          "indexed": true,
          "internalType": "uint256",
          "name": "reviewId",
          "type": "uint256"
        },
        {
          "indexed": false,
          "internalType": "string",
          "name": "newContent",
          "type": "string"
        }
      ],
      "name": "ReviewUpdated",
      "type": "event"
    },
    {
      "inputs": [
        {
          "internalType": "bytes32",
          "name": "productId",
          "type": "bytes32"
        },
        {
          "internalType": "address",
          "name": "reviewerAddress",
          "type": "address"
        },
        {
          "internalType": "string",
          "name": "content",
          "type": "string"
        },
        {
          "internalType": "uint8",
          "name": "rating",
          "type": "uint8"
        },
        {
          "internalType": "bytes32",
          "name": "nullifier",
          "type": "bytes32"
        },
        {
          "internalType": "string",
          "name": "serviceName",
          "type": "string"
        }
      ],
      "name": "addReview",
      "outputs": [
        {
          "internalType": "uint256",
          "name": "",
          "type": "uint256"
        }
      ],
      "stateMutability": "nonpayable",
      "type": "function"
    },
    {
      "inputs": [
        {
          "internalType": "uint256",
          "name": "reviewId",
          "type": "uint256"
        }
      ],
      "name": "deleteReview",
      "outputs": [],
      "stateMutability": "nonpayable",
      "type": "function"
    },
    {
      "inputs": [
        {
          "internalType": "bytes32",
          "name": "productId",
          "type": "bytes32"
        }
      ],
      "name": "getProductReviews",
      "outputs": [
        {
          "internalType": "uint256[]",
          "name": "",
          "type": "uint256[]"
        }
      ],
      "stateMutability": "view",
      "type": "function"
    },
    {
      "inputs": [
        {
          "internalType": "uint256",
          "name": "reviewId",
          "type": "uint256"
        }
      ],
      "name": "getReview",
      "outputs": [
        {
          "internalType": "uint256",
          "name": "id",
          "type": "uint256"
        },
        {
          "internalType": "bytes32",
          "name": "productId",
          "type": "bytes32"
        },
        {
          "internalType": "address",
          "name": "reviewer",
          "type": "address"
        },
        {
          "internalType": "string",
          "name": "content",
          "type": "string"
        },
        {
          "internalType": "uint8",
          "name": "rating",
          "type": "uint8"
        },
        {
          "internalType": "uint256",
          "name": "timestamp",
          "type": "uint256"
        },
        {
          "internalType": "string",
          "name": "serviceName",
          "type": "string"
        }
      ],
      "stateMutability": "view",
      "type": "function"
    },
    {
      "inputs": [
        {
          "internalType": "address",
          "name": "reviewer",
          "type": "address"
        }
      ],
      "name": "getReviewerReviews",
      "outputs": [
        {
          "internalType": "uint256[]",
          "name": "",
          "type": "uint256[]"
        }
      ],
      "stateMutability": "view",
      "type": "function"
    },
    {
      "inputs": [
        {
          "internalType": "bytes32",
          "name": "_nullifier",
          "type": "bytes32"
        }
      ],
      "name": "isNullifierUsed",
      "outputs": [
        {
          "internalType": "bool",
          "name": "isUsed",
          "type": "bool"
        }
      ],
      "stateMutability": "view",
      "type": "function"
    },
    {
      "inputs": [],
      "name": "owner",
      "outputs": [
        {
          "internalType": "address",
          "name": "",
          "type": "address"
        }
      ],
      "stateMutability": "view",
      "type": "function"
    },
    {
      "inputs": [
        {
          "internalType": "bytes32",
          "name": "",
          "type": "bytes32"
        },
        {
          "internalType": "uint256",
          "name": "",
          "type": "uint256"
        }
      ],
      "name": "productReviews",
      "outputs": [
        {
          "internalType": "uint256",
          "name": "",
          "type": "uint256"
        }
      ],
      "stateMutability": "view",
      "type": "function"
    },
    {
      "inputs": [],
      "name": "renounceOwnership",
      "outputs": [],
      "stateMutability": "nonpayable",
      "type": "function"
    },
    {
      "inputs": [],
      "name": "reviewCount",
      "outputs": [
        {
          "internalType": "uint256",
          "name": "",
          "type": "uint256"
        }
      ],
      "stateMutability": "view",
      "type": "function"
    },
    {
      "inputs": [
        {
          "internalType": "address",
          "name": "",
          "type": "address"
        },
        {
          "internalType": "uint256",
          "name": "",
          "type": "uint256"
        }
      ],
      "name": "reviewerReviews",
      "outputs": [
        {
          "internalType": "uint256",
          "name": "",
          "type": "uint256"
        }
      ],
      "stateMutability": "view",
      "type": "function"
    },
    {
      "inputs": [
        {
          "internalType": "uint256",
          "name": "",
          "type": "uint256"
        }
      ],
      "name": "reviews",
      "outputs": [
        {
          "internalType": "uint256",
          "name": "id",
          "type": "uint256"
        },
        {
          "internalType": "bytes32",
          "name": "productId",
          "type": "bytes32"
        },
        {
          "internalType": "address",
          "name": "reviewer",
          "type": "address"
        },
        {
          "internalType": "string",
          "name": "content",
          "type": "string"
        },
        {
          "internalType": "uint8",
          "name": "rating",
          "type": "uint8"
        },
        {
          "internalType": "bytes32",
          "name": "nullifier",
          "type": "bytes32"
        },
        {
          "internalType": "uint256",
          "name": "timestamp",
          "type": "uint256"
        },
        {
          "internalType": "string",
          "name": "serviceName",
          "type": "string"
        }
      ],
      "stateMutability": "view",
      "type": "function"
    },
    {
      "inputs": [
        {
          "internalType": "address",
          "name": "newOwner",
          "type": "address"
        }
      ],
      "name": "transferOwnership",
      "outputs": [],
      "stateMutability": "nonpayable",
      "type": "function"
    },
    {
      "inputs": [
        {
          "internalType": "uint256",
          "name": "reviewId",
          "type": "uint256"
        },
        {
          "internalType": "string",
          "name": "newContent",
          "type": "string"
        }
      ],
      "name": "updateReviewContent",
      "outputs": [],
      "stateMutability": "nonpayable",
      "type": "function"
    },
    {
      "inputs": [
        {
          "internalType": "bytes32",
          "name": "",
          "type": "bytes32"
        }
      ],
      "name": "usedNullifiers",
      "outputs": [
        {
          "internalType": "bool",
          "name": "",
          "type": "bool"
        }
      ],
      "stateMutability": "view",
      "type": "function"
    }
  ],
  "bytecode": "0x608060405234801561001057600080fd5b50338061003757604051631e4fbdf760e01b81526000600482015260240160405180910390fd5b61004081610046565b50610096565b600080546001600160a01b038381166001600160a01b0319831681178455604051919092169283917f8be0079c531659141344cd1fd0a4f28419497f9722a3daafe3b4186f6b6457e09190a35050565b6112fa806100a56000396000f3fe608060405234801561001057600080fd5b50600436106100f55760003560e01c8063b526701111610097578063eb55abdf11610066578063eb55abdf14610241578063eff5924f14610254578063f2fde38b1461025d578063f30572c41461027057600080fd5b8063b5267011146101e1578063cff845aa146101f4578063d71e489014610207578063e83ddcea1461021a57600080fd5b806360c5a8dd116100d357806360c5a8dd14610175578063715018a6146101965780638da5cb5b146101a0578063990581b6146101bb57600080fd5b8063206137aa146100fa57806322dc7b4c1461013257806332d6418d14610155575b600080fd5b61011d610108366004610cb1565b60056020526000908152604090205460ff1681565b60405190151581526020015b60405180910390f35b61011d610140366004610cb1565b60009081526005602052604090205460ff1690565b610168610163366004610ce6565b610283565b6040516101299190610d08565b610188610183366004610d95565b6102ef565b604051908152602001610129565b61019e61062b565b005b6000546040516001600160a01b039091168152602001610129565b6101ce6101c9366004610cb1565b61063f565b6040516101299796959493929190610e89565b61019e6101ef366004610ee5565b6107f2565b610188610202366004610f31565b6108dd565b61019e610215366004610cb1565b61090e565b61022d610228366004610cb1565b610a14565b604051610129989796959493929190610f53565b61018861024f366004610fbd565b610b7a565b61018860015481565b61019e61026b366004610ce6565b610b96565b61016861027e366004610cb1565b610bd4565b6001600160a01b0381166000908152600460209081526040918290208054835181840281018401909452808452606093928301828280156102e357602002820191906000526020600020905b8154815260200190600101908083116102cf575b50505050509050919050565b60006001600160a01b03881661034c5760405162461bcd60e51b815260206004820152601f60248201527f526576696577657220616464726573732063616e6e6f74206265207a65726f0060448201526064015b60405180910390fd5b60018560ff1610158015610364575060058560ff1611155b6103b05760405162461bcd60e51b815260206004820152601e60248201527f526174696e67206d757374206265206265747765656e203120616e64203500006044820152606401610343565b60008481526005602052604090205460ff161561040f5760405162461bcd60e51b815260206004820152601f60248201527f53746f726167653a204e756c6c696669657220616c72656164792075736564006044820152606401610343565b6000848152600560205260408120805460ff1916600190811790915580549161043783610fe7565b9190505550600060015490506040518061010001604052808281526020018b81526020018a6001600160a01b0316815260200189898080601f01602080910402602001604051908101604052809392919081815260200183838082843760009201919091525050509082525060ff881660208083019190915260408083018990524260608401528051601f8801839004830281018301909152868152608090920191908790879081908401838280828437600092018290525093909452505083815260026020818152604092839020855181559085015160018201559184015190820180546001600160a01b0319166001600160a01b039092169190911790556060830151909150600382019061054e90826110ad565b50608082015160048201805460ff191660ff90921691909117905560a0820151600582015560c0820151600682015560e0820151600782019061059190826110ad565b50505060008a8152600360209081526040808320805460018181018355918552838520018590556001600160a01b038d16808552600484528285208054928301815585529290932090920183905590518b9083907ffd8e2f0860a115e77d5ac876beeabd417d865f68bafb03b2150414b7056b4fdb90610616908b908a908a90611196565b60405180910390a49998505050505050505050565b610633610c34565b61063d6000610c61565b565b60008060006060600080606060008811801561065d57506001548811155b6106795760405162461bcd60e51b8152600401610343906111bc565b6000888152600260208190526040909120805460018201549282015460048301546006840154600385018054959694956001600160a01b0390941693909260ff169190600788019084906106cc90611024565b80601f01602080910402602001604051908101604052809291908181526020018280546106f890611024565b80156107455780601f1061071a57610100808354040283529160200191610745565b820191906000526020600020905b81548152906001019060200180831161072857829003601f168201915b5050505050935080805461075890611024565b80601f016020809104026020016040519081016040528092919081815260200182805461078490611024565b80156107d15780601f106107a6576101008083540402835291602001916107d1565b820191906000526020600020905b8154815290600101906020018083116107b457829003601f168201915b50505050509050975097509750975097509750975050919395979092949650565b60008311801561080457506001548311155b6108205760405162461bcd60e51b8152600401610343906111bc565b600083815260026020819052604090912001546001600160a01b031633146108815760405162461bcd60e51b81526020600482015260146024820152732737ba103a3432903932bb34b2bb9037bbb732b960611b6044820152606401610343565b600083815260026020526040902060030161089d8284836111e7565b50827ff2624643792d87ba20a8f38559332dcf8e0c101399d21c21c83fd4d6351dbd9283836040516108d09291906112a8565b60405180910390a2505050565b600360205281600052604060002081815481106108f957600080fd5b90600052602060002001600091509150505481565b60008111801561092057506001548111155b61093c5760405162461bcd60e51b8152600401610343906111bc565b600081815260026020819052604090912001546001600160a01b031633148061096f57506000546001600160a01b031633145b6109bb5760405162461bcd60e51b815260206004820152601860248201527f4e6f7420617574686f72697a656420746f2064656c65746500000000000000006044820152606401610343565b60408051602080820183526000808352848152600290915291909120600301906109e590826110ad565b5060405181907fe5b8d5ce0f468eff18b88328bfdf877d45b5aa6359e0df3ac054656b7acf9b1590600090a250565b600260208190526000918252604090912080546001820154928201546003830180549294936001600160a01b0390921692610a4e90611024565b80601f0160208091040260200160405190810160405280929190818152602001828054610a7a90611024565b8015610ac75780601f10610a9c57610100808354040283529160200191610ac7565b820191906000526020600020905b815481529060010190602001808311610aaa57829003601f168201915b505050600484015460058501546006860154600787018054969760ff9094169692955090935090610af790611024565b80601f0160208091040260200160405190810160405280929190818152602001828054610b2390611024565b8015610b705780601f10610b4557610100808354040283529160200191610b70565b820191906000526020600020905b815481529060010190602001808311610b5357829003601f168201915b5050505050905088565b600460205281600052604060002081815481106108f957600080fd5b610b9e610c34565b6001600160a01b038116610bc857604051631e4fbdf760e01b815260006004820152602401610343565b610bd181610c61565b50565b6000818152600360209081526040918290208054835181840281018401909452808452606093928301828280156102e357602002820191906000526020600020908154815260200190600101908083116102cf5750505050509050919050565b6000546001600160a01b0316331461063d5760405163118cdaa760e01b8152336004820152602401610343565b600080546001600160a01b038381166001600160a01b0319831681178455604051919092169283917f8be0079c531659141344cd1fd0a4f28419497f9722a3daafe3b4186f6b6457e09190a35050565b600060208284031215610cc357600080fd5b5035919050565b80356001600160a01b0381168114610ce157600080fd5b919050565b600060208284031215610cf857600080fd5b610d0182610cca565b9392505050565b6020808252825182820181905260009190848201906040850190845b81811015610d4057835183529284019291840191600101610d24565b50909695505050505050565b60008083601f840112610d5e57600080fd5b50813567ffffffffffffffff811115610d7657600080fd5b602083019150836020828501011115610d8e57600080fd5b9250929050565b60008060008060008060008060c0898b031215610db157600080fd5b88359750610dc160208a01610cca565b9650604089013567ffffffffffffffff80821115610dde57600080fd5b610dea8c838d01610d4c565b909850965060608b0135915060ff82168214610e0557600080fd5b90945060808a0135935060a08a01359080821115610e2257600080fd5b50610e2f8b828c01610d4c565b999c989b5096995094979396929594505050565b6000815180845260005b81811015610e6957602081850181015186830182015201610e4d565b506000602082860101526020601f19601f83011685010191505092915050565b87815286602082015260018060a01b038616604082015260e060608201526000610eb660e0830187610e43565b60ff861660808401528460a084015282810360c0840152610ed78185610e43565b9a9950505050505050505050565b600080600060408486031215610efa57600080fd5b83359250602084013567ffffffffffffffff811115610f1857600080fd5b610f2486828701610d4c565b9497909650939450505050565b60008060408385031215610f4457600080fd5b50508035926020909101359150565b888152602081018890526001600160a01b038716604082015261010060608201819052600090610f8583820189610e43565b905060ff871660808401528560a08401528460c084015282810360e0840152610fae8185610e43565b9b9a5050505050505050505050565b60008060408385031215610fd057600080fd5b610fd983610cca565b946020939093013593505050565b60006001820161100757634e487b7160e01b600052601160045260246000fd5b5060010190565b634e487b7160e01b600052604160045260246000fd5b600181811c9082168061103857607f821691505b60208210810361105857634e487b7160e01b600052602260045260246000fd5b50919050565b601f8211156110a857600081815260208120601f850160051c810160208610156110855750805b601f850160051c820191505b818110156110a457828155600101611091565b5050505b505050565b815167ffffffffffffffff8111156110c7576110c761100e565b6110db816110d58454611024565b8461105e565b602080601f83116001811461111057600084156110f85750858301515b600019600386901b1c1916600185901b1785556110a4565b600085815260208120601f198616915b8281101561113f57888601518255948401946001909101908401611120565b508582101561115d5787850151600019600388901b60f8161c191681555b5050505050600190811b01905550565b81835281816020850137506000828201602090810191909152601f909101601f19169091010190565b60ff841681526040602082015260006111b360408301848661116d565b95945050505050565b602080825260119082015270125b9d985b1a59081c995d9a595dc81251607a1b604082015260600190565b67ffffffffffffffff8311156111ff576111ff61100e565b6112138361120d8354611024565b8361105e565b6000601f841160018114611247576000851561122f5750838201355b600019600387901b1c1916600186901b1783556112a1565b600083815260209020601f19861690835b828110156112785786850135825560209485019460019092019101611258565b50868210156112955760001960f88860031b161c19848701351681555b505060018560011b0183555b5050505050565b6020815260006112bc60208301848661116d565b94935050505056fea264697066735822122077998394d758e8ff139a0a951835b3255dee7e22e0eb9b7b626ba5a1636ee6f664736f6c63430008140033",
  "linkReferences": {},
  "deployedLinkReferences": {}
}